:0400000500000A816C
:020000040000FA
:1000000000040020810A000015070000610A0000BA
:100010001F07000029070000330700000000000050
:10002000000000000000000000000000A50A000021
:100030003D070000000000004707000051070000D6
:100040005B070000650700006F07000079070000EC
:10005000830700008D07000097070000A10700003C
:10006000AB070000B5070000BF070000C90700008C
:10007000D3070000DD070000E7070000F1070000DC
:10008000FB070000050800000F0800001908000029
:10009000230800002D080000370800004108000078
:1000A0004B080000550800005F08000069080000C8
:1000B000730800007D080000870800009108000018
:1000C0009B080000A5080000AF080000B908000068
:1000D000C3080000CD080000D7080000E1080000B8
:1000E000EB080000F5080000FF0800000909000007
:1000F000130900001D090000270900003109000054
:100100003B0900001FB500F003F88DE80F001FBD8C
:1001100000F0ACBC40F6FC7108684FF01022401CA7
:1001200008D00868401C09D00868401C04D0086842
:1001300000F037BA9069F5E79069F9E7704770B554
:100140000B46010B184400F6FF70040B4FF0805073
:100150000022090303692403406943431D1B104621
:1001600000F048FA29462046BDE8704000F042BA47
:10017000F0B54FF6FF734FF4B4751A466E1E11E0DA
:10018000A94201D3344600E00C46091B30F8027B3B
:10019000641E3B441A44F9D19CB204EB134394B25D
:1001A00004EB12420029EBD198B200EB134002EBB2
:1001B000124140EA0140F0BDF34992B00446D1E952
:1001C0000001CDE91001FF224021684600F0F4FB58
:1001D00094E80F008DE80F00684610A902E004C8FB
:1001E00041F8042D8842FAD110216846FFF7C0FF7C
:1001F0001090AA208DF8440000F099F9FFF78AFFCB
:1002000040F6FC7420684FF01025401C0FD0206889
:1002100010226946803000F078F92068401C08D030
:100220002068082210A900F070F900F061F9A869AF
:10023000EEE7A869F5E74FF080500369406940F6A2
:10024000FC71434308684FF01022401C06D0086838
:1002500000F58050834203D2092070479069F7E788
:100260000868401C04D00868401C03D00020704778
:100270009069F9E70420704770B504460068C34DE3
:10028000072876D2DFE800F033041929631E250021
:10029000D4E9026564682946304600F062F92A46CE
:1002A0002146304600F031F9AA002146304600F0E0
:1002B00057FB002800D0032070BD00F009FC4FF46C
:1002C000805007E0201D00F040F90028F4D100F034
:1002D000FFFB60682860002070BD241D94E80700C3
:1002E000920000F03DFB0028F6D00E2070BDFFF715
:1002F000A2FF0028FAD1D4E901034FF0805100EBAE
:10030000830208694D69684382420ED840F6F8704E
:1003100005684FF010226D1C09D0056805EB8305B8
:100320000B6949694B439D4203D9092070BD55694A
:10033000F4E70168491C03D00068401C02D003E0C8
:100340005069FAE70F2070BD2046FFF735FFFFF731
:1003500072FF0028F7D1201D00F0F7F80028F2D135
:1003600060680028F0D100F0E2F8FFF7D3FE00F05B
:10037000BFF8072070BD10B50C46182802D0012028
:10038000086010BD2068FFF777FF206010BD41684E
:10039000054609B1012700E0002740F6F8742068FF
:1003A0004FF01026401C2BD02068AA68920000F065
:1003B000D7FA38B3A86881002068401C27D020688D
:1003C000FFF7BDFED7B12068401C22D026684FF051
:1003D0008050AC686D68016942695143A9420DD9EA
:1003E000016940694143A14208D92146304600F0E5
:1003F000B8F822462946304600F087F800F078F831
:100400007069D2E700F093F8FFF784FEF6E77069B1
:10041000D6E77669DBE740F6FC7420684FF01026DB
:10042000401C23D02068401C0CD02068401C1FD0EA
:100430002568206805F18005401C1BD027683879A5
:10044000AA2819D040F6F8700168491C42D001680A
:10045000491C45D00168491C3ED001680968491C07
:100460003ED00168491C39D000683EE0B069DAE747
:10047000B569DEE7B769E2E710212846FFF778FEA5
:100480003968814222D12068401C05D0D4F8001080
:1004900001F18002C03107E0B169F9E730B108CA63
:1004A00051F8040D984201D1012000E000208A4259
:1004B000F4D158B1286810B1042803D0FEE72846CB
:1004C000FFF765FF3149686808600EE0FFF722FE1C
:1004D00000F00EF87169BBE77169BFE7706904E06D
:1004E0004FF480500168491C01D000F0CBFAFEE7C0
:1004F000BFF34F8F26480168264A01F4E06111439B
:100500000160BFF34F8F00BFFDE72DE9F0411746B3
:100510000D460646002406E03046296800F054F8EF
:10052000641C2D1D361DBC42F6D3BDE8F08140F69B
:10053000FC700168491C04D0D0F800004FF48051D1
:10054000FDE54FF010208069F8E74FF080510A690F
:10055000496900684A43824201D810207047002050
:10056000704770B50C4605464FF4806608E0284693
:1005700000F017F8B44205D3A4F5806405F5805562
:10058000002CF4D170BD0000F40A0000000000202F
:100590000CED00E00400FA05144801680029FCD0C5
:1005A0007047134A0221116010490B68002BFCD0E0
:1005B0000F4B1B1D186008680028FCD0002010603D
:1005C00008680028FCD07047094B10B501221A605A
:1005D000064A1468002CFCD0016010680028FCD08A
:1005E0000020186010680028FCD010BD00E4014015
:1005F00004E5014070B50C46054600F073F810B9EB
:1006000000F07EF828B121462846BDE8704000F091
:1006100007B821462846BDE8704000F037B8000012
:100620007FB5002200920192029203920A0B000B06
:100630006946012302440AE0440900F01F0651F80C
:10064000245003FA06F6354341F82450401C8242F8
:10065000F2D80D490868009A10430860081D016827
:10066000019A1143016000F03DF800280AD00649C4
:1006700010310868029A10430860091D0868039A3F
:10068000104308607FBD00000006004030B50F4CED
:10069000002200BF04EB0213D3F800582DB9D3F8A1
:1006A000045815B9D3F808581DB1521C082AF1D3C3
:1006B00030BD082AFCD204EB0212C2F80008C3F8CD
:1006C00004180220C3F8080830BD000000E0014013
:1006D0004FF08050D0F83001082801D0002070473A
:1006E000012070474FF08050D0F83011062905D016
:1006F000D0F83001401C01D0002070470120704725
:100700004FF08050D0F830010A2801D00020704707
:100710000120704708208F490968095808471020B0
:100720008C4909680958084714208A4909680958FA
:100730000847182087490968095808473020854923
:100740000968095808473820824909680958084744
:100750003C20804909680958084740207D490968BC
:100760000958084744207B49096809580847482028
:1007700078490968095808474C207649096809589A
:10078000084750207349096809580847542071499F
:1007900009680958084758206E49096809580847E8
:1007A0005C206C4909680958084760206949096854
:1007B00009580847642067490968095808476820AC
:1007C00064490968095808476C2062490968095852
:1007D000084770205F4909680958084774205D4937
:1007E00009680958084778205A490968095808478C
:1007F0007C205849096809580847802055490968EC
:10080000095808478420534909680958084788202F
:1008100050490968095808478C204E490968095809
:10082000084790204B4909680958084794204949CE
:10083000096809580847982046490968095808472F
:100840009C204449096809580847A0204149096883
:1008500009580847A4203F49096809580847A820B3
:100860003C49096809580847AC203A4909680958C1
:100870000847B0203749096809580847B420354966
:10088000096809580847B8203249096809580847D3
:10089000BC203049096809580847C0202D4909681B
:1008A00009580847C4202B49096809580847C82037
:1008B0002849096809580847CC2026490968095879
:1008C0000847D0202349096809580847D4202149FE
:1008D000096809580847D8201E4909680958084777
:1008E000DC201C49096809580847E02019490968B3
:1008F00009580847E4201749096809580847E820BB
:100900001449096809580847EC2012490968095830
:100910000847F0200F49096809580847F4200D4995
:10092000096809580847F8200A490968095808471A
:10093000FC2008490968095808475FF48070054998
:10094000096809580847000003480449024A034B54
:100950007047000000000020000B0000000B0000AA
:1009600040EA010310B59B070FD1042A0DD310C82C
:1009700008C9121F9C42F8D020BA19BA884201D97E
:10098000012010BD4FF0FF3010BD1AB1D30703D0C6
:10099000521C07E0002010BD10F8013B11F8014B7C
:1009A0001B1B07D110F8013B11F8014B1B1B01D198
:1009B000921EF1D1184610BD02F0FF0343EA032254
:1009C00042EA024200F005B87047704770474FF0A6
:1009D00000020429C0F0128010F0030C00F01B800C
:1009E000CCF1040CBCF1020F18BF00F8012BA8BF1A
:1009F00020F8022BA1EB0C0100F00DB85FEAC17CDE
:100A000024BF00F8012B00F8012B48BF00F8012B90
:100A100070474FF0000200B51346944696462039C1
:100A200022BFA0E80C50A0E80C50B1F12001BFF4A7
:100A3000F7AF090728BFA0E80C5048BF0CC05DF80D
:100A400004EB890028BF40F8042B08BF704748BF5B
:100A500020F8022B11F0804F18BF00F8012B7047CF
:100A6000014B1B68DB6818470000002009480A4951
:100A70007047FFF7FBFFFFF745FB00BD20BFFDE719
:100A8000064B1847064A1060016881F308884068E1
:100A900000470000000B0000000B000017040000DE
:100AA000000000201EF0040F0CBFEFF30881EFF3ED
:100AB0000981886902380078182803D100E0000015
:100AC000074A1047074A12682C3212681047000084
:100AD00000B5054B1B68054A9B58984700BD0000B0
:100AE0007703000000000020F00A0000040000006E
:100AF000001000000000000000FFFFFF0090D00386
:020000040007F3
:104000000000022065AE07008DAE07008FAE0700EE
:1040100091AE070093AE070095AE070000000000C8
:10402000000000000000000000000000C145070083
:1040300099AE0700000000009BAE0700754E070018
:10404000854F07009FAE07009FAE07009FAE070099
:104050009FAE07009FAE07009FAE07009FAE070010
:104060009FAE07009FAE07009FAE07009FAE070000
:104070009FAE07009FAE07009FAE07009FAE0700F0
:104080009FAE0700317307009FAE07009FAE070089
:10409000ED7307009FAE0700AD4A07009FAE070013
:1040A0009FAE07009FAE07009FAE07009FAE0700C0
:1040B0009FAE07009FAE0700000000000000000058
:1040C0009FAE07009FAE07009FAE07009FAE0700A0
:1040D0009FAE07009FAE07009FAE070085830700D5
:1040E0009FAE07000000000000000000000000007C
:1040F000000000009FAE0700000000009FAE070018
:1041000000000000000000000000000000000000AF
:10411000000000000000000000000000000000009F
:10412000000000000000000000000000000000008F
:10413000000000000000000000000000000000007F
:10414000000000000000000000000000000000006F
:10415000000000000000000000000000000000005F
:10416000000000000000000000000000000000004F
:10417000000000000000000000000000000000003F
:10418000000000000000000000000000000000002F
:10419000000000000000000000000000000000001F
:1041A000000000000000000000000000000000000F
:1041B00000000000000000000000000000000000FF
:1041C00000000000000000000000000000000000EF
:1041D00000000000000000000000000000000000DF
:1041E00000000000000000000000000000000000CF
:1041F00000000000000000000000000000000000BF
:1042000010B5054C237833B9044B13B10448AFF310
:1042100000800123237010BD2486002000000000D0
:1042200024BE070008B5034B1BB103490348AFF395
:10423000008008BD000000002886002024BE070082
:10424000A3F5803A704700BF174B002B08BF134BF4
:104250009D46FFF7F5FF00218B460F461348144A91
:10426000121A00F05FF80E4B002B00D098470D4B50
:10427000002B00D098470020002104000D000D48BD
:10428000002802D00C4800F027F900F027F82000A1
:10429000290000F007FA00F011F800BF0000080044
:1042A0000000000000000000000002202486002022
:1042B00030CE0020D9440700A544070008B50021EE
:1042C000044600F089F8044B1868C36B03B19847A3
:1042D000204600F04DF900BF14BB070070B50D4E2D
:1042E0000D4D761BB61006D0002455F8043B013462
:1042F0009847A642F9D1094E094D761B07F0FEFBFF
:10430000B61006D0002455F8043B01349847A64265
:10431000F9D170BD18860020188600202086002064
:1043200018860020F0B4860746D0541E002A3CD0E0
:10433000CAB2034601E0013C37D303F8012B9D07C5
:10434000F9D1032C2AD9CDB245EA05250F2C45EA2F
:10435000054534D9A4F1100222F00F0C03F1200717
:104360001609674403F1100242E9045542E9025577
:104370001032BA42F8D1721C14F00C0F03EB021287
:1043800004F00F0613D0331F23F003030433134448
:1043900042F8045B9342FBD106F003042CB1CAB28D
:1043A0001C4403F8012B9C42FBD1F0BC70473446FF
:1043B0001346002CF3D1F8E714460346C1E71A462A
:1043C0002646E0E7024B13B1024800F085B870477B
:1043D00000000000A54407002DE9F84F2F4B2DEDFC
:1043E000028B834618680F4600F072F82C4BD3F806
:1043F0000080D8F84861AEB108EE10BA4FF001095C
:104400004FF0000A7468651E0CD4013406EB840476
:1044100087B1D4F80031BB420CD0013D6B1CA4F134
:104420000404F5D1BDEC028B1C4B1868BDE8F84FB5
:1044300000F050B873682268013BAB420CBF756056
:10444000C4F800A0002AE8D0D6F88801D6F804B055
:1044500009FA05F101420BD1904772685A4513D110
:10446000D8F84831B342D8D01E46002ECAD1D9E779
:10447000D6F88C0101420CD1D4F8801018EE100A45
:10448000904772685A45EBD0D8F84861002EB9D1F0
:10449000C8E7D4F880009047DFE700BF30840020F1
:1044A00014BB070038B5084B084D5B1B9C1007D0A8
:1044B000043B1D44013C55F804399847002CF9D1C0
:1044C000BDE8384007F020BB24860020208600206D
:1044D000704700BF704700BF002301461A461846C8
:1044E00000F000B82DE9F047DFF880A00646DAF8C2
:1044F000000098460F469146FFF7EAFF1A4B1B68EB
:10450000D3F8484124B365681F2D26DC5EB9AB1C87
:104510000135DAF80000656044F82370FFF7DAFF30
:104520000020BDE8F08704EB85030121C3F88890E3
:10453000D4F88821A9400A43022EC4F88821C3F880
:104540000881E4D1D4F88C311943C4F88C11DEE72A
:1045500003F5A674C3F84841D5E7DAF80000FFF781
:10456000B9FF4FF0FF30DCE714BB070030840020B8
:10457000FEE700BF38B50D46E8B90968C9B10F4C70
:10458000A1420BD0631A3B2B11D93C22204606F0E6
:1045900095FC03E0CA5CE254013BFBD207480022D1
:1045A0003C2103F029FA0023A0872B6038BD3D236E
:1045B000F2E70E23F9E70123F7E700BF807F002031
:1045C000074A6FF002039E4502D1EFF3098101E033
:1045D000EFF308818869A0F102000078104700BF5E
:1045E0007545070038B50546A8B10D4C00223C21A1
:1045F000204603F001FAA38F83420ED1224604F134
:104600003C0152F8040B45F8040B8A42F9D10133FE
:10461000A387002038BD0E20FCE70B20FAE700BF7F
:10462000807F0020BFF34F8F0549064BCA6802F414
:10463000E0621343CB60BFF34F8F00BFFDE700BFC5
:1046400000ED00E00400FA054BDF704710DF704713
:1046500011DF704713DF704718DF704760DF704766
:1046600069DF704761DF704708B5034B1B68DB07E4
:1046700000D500BEFFF7D6FFF0ED00E0014B187843
:10468000704700BF418600201FB50023CDE90133EC
:104690000393684602230093FFF7DEFF05B05DF841
:1046A00004FB00002DE9F04F4FF0804389B0D3F8B0
:1046B0001C85D3F81C25A8F1B104D4F1000A4AEBFB
:1046C000040AB12A18D0D3F81C45A4F1A80044422A
:1046D00044414C4D04F001032B704FF08043D3F85C
:1046E0001C75D3F81C954CB1D3F81C654FF0804372
:1046F0000022C3F81C251AE00124EAE74E2F03D15B
:10470000D3F81C650124F1E7B9F1570FF8D03E4A00
:10471000126811683D4A914203D1D3F80024D107B1
:10472000EED44FF08043D3F81C656D2EDED0384BAD
:1047300040F20152C3F8402500F0D2FA00F0CEFE5C
:10474000002000F09FFB00F04BFF78B1052000F047
:1047500099FB00F057FF08B103F006F900F078FF6D
:1047600008B103F001F9062000F08CFB6D2E294EF4
:1047700000F021811CB90B2000F042FA04462B788E
:104780003BBB0B2000F03CFA10B10C2000F038FAD3
:1047900000F00100287000F0D1FDDFF880B0034682
:1047A00030B12CB9184A126811681B4A914246D0A0
:1047B00043F204021268B24209BF43F208024FF406
:1047C0009052126802F5007212685A4528D10124ED
:1047D00035E00120DCE71C4631E04FF480030B603C
:1047E00071E0022000F04EFBA7F14E035842584101
:1047F00003F0CCFDBBE000221146D1E003F016FE31
:10480000D9E000BF4186002034840020D51A5A0028
:1048100000A00040DBE5B1517E67E54E7CB0EE873D
:10482000002CD4D1002BD6D0714A72491268019362
:104830001160714A714842F001029047019B6C4936
:1048400043F2040209681268B24209BF43F2080247
:104850004FF49052126802F5007212685A450CBF6C
:10486000674A00220A6014B9002B40F0A4802C781B
:10487000002CB6D0082000F005FBB8F1B10F01D034
:10488000FFF702FF4FF4E820FFF7E4FE08B103F062
:104890006BF85C4B5C491868039003A8FFF7D6FEE1
:1048A00008B103F061F8594991F816335A09EC231D
:1048B0001341DA0707D5564B9A68002A8DD01A683B
:1048C00042F480021A60534B04930C22002105A885
:1048D000FFF728FD40F20113049A059305A9402033
:1048E000FFF7BEFE08B103F03FF80C22002105A837
:1048F000FFF718FD9DF81430049A43F0010305A951
:10490000A0208DF81430FFF7ABFE08B103F02CF8AF
:104910000C22002105A8FFF705FD01238DF81430B6
:10492000049AF72305A92320ADF81630FFF798FE67
:1049300008B103F019F80C22002105A8FFF7F2FCDA
:1049400001238DF814308DF81630049A062305A93A
:104950002020ADF81830FFF783FE08B103F004F80B
:1049600004A8FFF77BFE08B102F0FEFFA24643F267
:10497000040328781B68B34209BF43F208034FF4CD
:1049800090531B6803F500731B685B4505D0B9F1B4
:10499000570F02D04E2F7FF42EAF012240F6B831D0
:1049A00000F0B4FD08B102F0DFFF2B78002B3FF4DC
:1049B00025AFFFF74DFE00F0E1F900F0BFFCA0B11C
:1049C00000F00EFE88B943F204031B68B34206D11F
:1049D000BAF1000F01D1FFF757FEFFF739FE044B84
:1049E0001B6800221A6000F0CDFDFFF71BFE00BF20
:1049F00034840020D51A5A0020BB07000048E80183
:104A00007E67E54E18BB07006946070000E100E03D
:104A100060CD00200080002010B5FEB04FF4FA7386
:104A20000DF1020101A8ADF80230FFF71BFE0446AC
:104A300040B9BDF80430102B07D0112B0CD001A8C1
:104A400001F098F820467EB010BD054B01221A7087
:104A5000072000F017FAF2E7014B18700820F8E77A
:104A60004086002013B501A8FFF7EEFD044660B9AB
:104A7000019802F007FB019B0A2B09D0092B09D0F2
:104A80000B2B02D1012004F06DFB204602B010BDBB
:104A90002046F8E70220F6E708B5FFF7BDFF052836
:104AA000FBD1FFF7DFFF0528F7D108BD0021024A3F
:104AB000084602F0C3BE00BF994A070038B50C4C47
:104AC00021684B1C054612D00A484FF4805206F06C
:104AD000E7F948B115B1206800F0B8FA0549206837
:104AE0004FF4806200F0D2FA4FF0FF33236038BDFC
:104AF00038840020448600202DE9F041DFF844800E
:104B0000044624F47F651846D8F8003025F00F05D8
:104B1000AB420E46174609D0FFF7D0FF0848C8F849
:104B200000504FF48052294606F0C8F90448C4F3F7
:104B30000B043A4631462044BDE8F04106F0BEB9C8
:104B400044860020388400200B2970B504461546A1
:104B500008462FD92389053304EB43012044431A27
:104B6000DAB2012A26D9814224D8134806F0A6F9E0
:104B70002388522B06D1AB0711D062884CF66863AC
:104B80009A420CD00F2014E034F8022B824204D059
:104B90002E88964203F1010308D1002009E0218903
:104BA00000230A344FF6FE7043F20C059942EBD80D
:104BB0000B2070BD0920FCE74496002008B50022B8
:104BC00002F01AFF044A5178137843EA012398420D
:104BD00014BF0B20002008BD449600201F2884BF6E
:104BE00000F01F00044B054A98BF4FF0A04300F5AA
:104BF000E07043F820207047000300500C000300D1
:104C00001F288ABF064B4FF0A04300F01F00D3F8C7
:104C1000103523FA00F0C04300F00100704700BFD8
:104C20000003005000234FF0FF328360C0F80035CE
:104C3000C0F86025C0F86425C0F86825C0F86C2568
:104C400040F2FF32C0F80435C0F80825C0F80C3532
:104C5000C0F81035C0F81435C0F82035C0F8243538
:104C6000704700001B4B00221F2930B5C3F80025F8
:104C70008BBF01F01F030B46174A4FF0A04203F50C
:104C8000E074032542F82450012404FA03F3C2F827
:104C9000083500F5AC700F4B002243F82010FF21BF
:104CA000C3F804250220C3F808150421C3F80C1525
:104CB000C3F810050948C3F81425C3F82005C3F844
:104CC0002415C3F82825C3F82C25C3F80045C3F8DC
:104CD000102130BD00C00140000300504498002066
:104CE00038B54FF0804301240025DC600B20C3F869
:104CF00018559C60FFF772FF0C20FFF76FFF174BF2
:104D00004FF4C850234398470D212846FFF7AAFFC8
:104D10000E212046FFF7A6FF114A1E21082002F0AF
:104D200069FD08B102F020FE02F0CAFC0D490E4BED
:104D3000E02081F823001B684FF47A72B3FBF2F392
:104D4000013BB3F1807F07D2084A5360002381F80A
:104D5000230093600723136038BD00BF30BB0700FA
:104D60005096002000ED00E03C84002010E000E0C0
:104D70000148FFF757BF00BF00C00140164B00219C
:104D800010B51960FFF7F4FF144B154C4FF40032C7
:104D9000C3F8802003F1C04303F53C534FF4803245
:104DA000C3F84823C3F8082301225A609A604FF0E1
:104DB00080430220DA600B461F2B1A46C6BF03F061
:104DC0001F0221464FF0A04102F5E07201332A2B69
:104DD00041F82200F0D110BD10E000E000E100E059
:104DE00000030050074B23F81010074B00221A60F5
:104DF00082B01B680193019B044B01221A6002B030
:104E0000704700BF4498002010C1014008C0014015
:104E100010B5154B1C68154B1868B4FBF0F200FB7D
:104E20001242B2EB500F88BF821A4F2143084A4307
:104E30000020B2FBF3F189B2FFF7D4FF0C4B1A68E4
:104E4000B4FBF2F302FB1343B3EB520F4FF08F01AD
:104E500088BFD31A50084B43BDE81040B3FBF0F1B4
:104E6000012089B2FFF7BEBF409800204C98002077
:104E700054980020024A136801331360FFF7C8BF3B
:104E8000409800201B4A1168082823D8DFE800F06A
:104E900013051322221A1E242A00174B40F6B8309D
:104EA00018604FF47F4303F0103323F0805399428E
:104EB00018BF13607047104B4FF4967018604FF492
:104EC0007F03F0E70C4B64221A6070470A4B40F6F0
:104ED000B83018600B46E6E7084B40F6B83018606B
:104EE000FF23E0E7054B4FF4967018604FF0FF1377
:104EF000D9E700BF509800204C980020549800201B
:104F000000F1804382B01A68002A14BF01200020FB
:104F100004D000221A601B680193019B02B0704705
:104F20000D4B1A78AAB902784FF0804102F00102C5
:104F3000C1F87825094A1168C90706D4E02182F82A
:104F400000130121C2F880111160012204481A7077
:104F500070470448704700BF5DCD002000E100E0CD
:104F60000000AD0B0C00AD0B014B02681A607047DE
:104F7000609800204FF080434FF46072C3F8042320
:104F80007047000010B54FF08043D3F80443620728
:104F900007D54FF48470FFF7B3FF10B11E4B1B68A9
:104FA0009847A30608D54FF48A70FFF7A9FF18B1F8
:104FB0001A4B00201B689847600608D54FF48C7088
:104FC000FFF79EFF18B1154B01201B68984721067B
:104FD00008D54FF48E70FFF793FF18B1104B0020E7
:104FE0001B689847E20508D54FF49070FFF788FFDB
:104FF00018B10B4B01201B689847A3050AD54FF445
:105000009270FFF77DFF28B1054BBDE810401B688B
:105010000220184710BD00BF589800205C9800205F
:105020006098002070B5084C0023934200D170BDF9
:1050300051F82350D4F80064F607FBD540F823500C
:10504000BFF35F8F0133F0E700E001404FF0805382
:105050001A69B0FBF2F302FB130373B9084B022287
:10506000C3F80425C3F80805D3F80024D207FBD5FC
:1050700000220448C3F8042570470348704700BF66
:1050800000E001400000AD0B0A00AD0B10B5054C6F
:105090000123C4F80435FFF7C5FF0023C4F8043525
:1050A00010BD00BF00E00140BFF34F8F0549064B24
:1050B000CA6802F4E0621343CB60BFF34F8F00BFB6
:1050C000FDE700BF00ED00E00400FA0508B55E4B07
:1050D0001B680D2B57D14FF080414FF080520023B9
:1050E000C1F80C31C1F81031C1F83835574BD2F83E
:1050F0000404C3F82005D2F80804C3F82405D2F844
:105100000C04C3F82805D2F81004C3F82C05D2F813
:105110001404C3F83005D2F81804C3F83405D2F8E3
:105120001C04C3F84005D2F82004C3F84405D2F8A3
:105130002404C3F84805D2F82804C3F84C05D2F873
:105140002C04C3F85005D2F83004C3F85405D2F843
:105150003404C3F86005D2F83804C3F86405D2F803
:105160003C04C3F86805D2F84004C3F86C05D2F8D3
:105170004424C3F87025D1F80034D80744BF6FF039
:105180000103C1F80034324AD2F8883043F4700386
:10519000C2F88830BFF34F8FBFF36F8F4FF01023EB
:1051A000D3F80C22D2071ED52A4B0122C3F80425BE
:1051B000D3F80024002AFBD04FF01022D2F80C3292
:1051C00023F00103C2F80C32224B1A46D3F8001424
:1051D0000029FBD00021C3F80415D2F80034002BBD
:1051E000FBD0FFF761FFD3F80022002A03DBD3F8DE
:1051F0000432002B23DA174B0122C3F80425D3F81D
:105200000024002AFBD04FF010221221C2F8001215
:10521000D3F80024002AFBD04FF010231222C3F849
:1052200004220C4B1A46D3F800140029FBD00021AD
:10523000C3F80415D2F80034002BFBD0D1E7064B9D
:10524000064A1A6008BD00BF3001001000C00040CF
:1052500000ED00E000E001403C8400200090D0031D
:1052600013DF704718DF7047064B1878012803D109
:10527000012904BF0221197012B1104602F074BB5B
:10528000704700BF9198002070B5124C124D134E1C
:10529000D4F800347BB1C4F80056C4F80456C4F8FE
:1052A0000856C4F80C56C4F81056C4F81456C4F87E
:1052B0001856C4F81C5602F027FB05F0CDFD20B1AE
:1052C00004F03EFC002005F059F83378023B022B35
:1052D000DED870BD000001403546526E9198002026
:1052E00008B5FFF7CBF988B111481C2101F062FF26
:1052F00008B102F039FB0F490D4800231C2201F0D0
:1053000049FF98B1BDE8084002F02EBB4FF4FE20E3
:10531000FFF79CFE072207494FF4FE20FFF7B6FE79
:10532000054B1A78012A04BF02221A7008BD00BF7B
:1053300088980020949800209198002013B543F29B
:10534000040301A81A68124B9A420ABF43F20803E9
:105350004FF480541C6800F0A9F92368013302D18E
:105360006368013311D0019B1A88012A0DD1588836
:1053700020B199680022204602F03EFB019B5B8829
:105380001B1A5842584102B010BD0020FBE700BF75
:10539000DBE5B15184B02DE9F34108AC84E80F009E
:1053A0009DF82040BDF822800B9D01A8DDE909761B
:1053B00000F07CF954B9384B0122FF21A3F8028098
:1053C0009D601A809980354B1A7012E0012C17D11C
:1053D000314BBA192A449A60A5221A80FF229A807A
:1053E0000C9AA3F80280C3E903765D619A612B4BA6
:1053F0001C70FFF775FF02B0BDE8F04104B07047C4
:10540000032C0FD1019A244B11881980518892687E
:105410009A60C3E90376AA2259809A805D611F4B86
:105420000122D1E7022C15D1019A1B4B1188A52925
:105430000AD100229A60FF221A60FF229A8000227D
:10544000C3E903225A61EAE71980518892685980BA
:105450009A60F2E7052C0ED1FFF710F940B100F089
:105460008DFD08B102F080FA0C4B03221A70C2E7DE
:1054700000F012FAF5E7042C08D1074B00229A60DD
:10548000FF221A60019A92889A80B2E7062CB2D164
:10549000024B0422EAE700BF949800209198002074
:1054A00000B50C4B1B7889B063B90B4B1B786BB9FB
:1054B00005238DF80C30079B009303AB0FCBFFF750
:1054C00069FF03E004F04AF90028EED009B05DF866
:1054D00004FB00BF90980020849800201FB5002393
:1054E000CDE90233074B019301F020FE30B90649A4
:1054F0004FF4FE2301A84B6001F03AFE05B05DF8C1
:1055000004FB00BF695207008898002070B505466B
:105510000E460AB180F00102154B02F001021A702A
:1055200000F0A2FF044628B935B100F083FC044620
:10553000FFF7AAFE204670BDBEB10E4B0E4A0F48C3
:105540001D70294602F0ECF84FF400444FF4FA7055
:1055500000214FF47A720023E4FB060106F044F9BF
:105560002A460146064802F0EDF800F071F9DEE740
:105570009098002084980020A154070038BB0700B1
:10558000649800201FB5144B4FF0FF32C3F8802001
:10559000C3F8802143F204031A68104B9A420ED1DB
:1055A00043F208031C682046FFF75AFE10B14FF083
:1055B00000531C60204600F09DF804B010BD00238D
:1055C000CDE902334FF4805406236846CDE9003418
:1055D000FFF748FEEAE700BF00E100E0DBE5B1517C
:1055E00007B501A800F062F8019B1A88A52A07D028
:1055F0009888A0F1AA035842584103B05DF804FB13
:105600000120FAE710B501F05BF9A8B10E4B0F4885
:1056100043F00103984701F0B9F808B102F0A4F98A
:1056200001F04EF908B102F09FF901F0FBF80446D1
:1056300038B102F099F904E001F01AF904460028A3
:10564000E4D1204610BD00BF40BB070000A86100A8
:1056500000B589B003AB142200211846FEF762FEA4
:1056600002228DF80C20002200920FC8FFF792FE54
:10567000FFF70AFE002009B05DF804FB13B50446ED
:1056800001A800F013F8019B1A8822805A886280D2
:105690009A68A2609A88A280DA68E2601A69226138
:1056A0005A6962619B69A36102B010BD014B03603E
:1056B000704700BF00F00700F0B50346186880F39C
:1056C00008885868FF2464B2EFF30585002D01D1E6
:1056D000A64600472546064621273FBAF0B40024D7
:1056E000002500260027F0B4F92040B2004700BF93
:1056F000F0BD00BFFFF7E0BF73B500230DF102015D
:1057000001A8ADF80230019302F0B6FDF8B9019C92
:1057100025785DB3174B93F83020032A28D00C2648
:1057200006FB00F29958E9B998189D5093F830207B
:105730000132D2B283F83020BDF802300E4A9B0805
:10574000013B043443608460084602F077F8019B13
:1057500033B128B1184602F0ABFD08B102F004F9EC
:1057600002B070BD01300428DAD1F0E70720EEE77F
:105770000420ECE7B0980020C157070010B50C23B7
:105780000B4A58431118135883B192F830308C6883
:10579000013BDBB282F8303000231350C1E9013302
:1057A000201F02F085FD08B102F0DEF8002010BDD8
:1057B000B0980020084609B102F0D6B87047000042
:1057C000214B70B50122214E1A7096F8303003B982
:1057D00070BD1E4C0025236883B1013B042B07D804
:1057E000DFE803F01C0612032800204600F0D4FE78
:1057F000E8B2FFF7C3FF08B102F0B6F80135042D97
:1058000004F10C04E7D1E0E7A3686360204600F0F0
:1058100067FE0028ECD002F0A7F8E9E7204600F088
:105820004DFF00F029FF08B102F09EF80520FFF7B8
:1058300029FBDDE700F06EFF00F08CFFBDE8704053
:105840000620FFF71FBB00BF84980020B0980020FF
:1058500008B50E4B002283F8302011460132042A8D
:10586000C3E90111196003F10C03F7D1084800F0F6
:1058700031FE02F099FC08B102F076F8054802F01A
:105880007FFC08B102F070F8002008BDB09800203D
:10589000B5570700F956070008B50020FFF76EFF5F
:1058A0000120FFF76BFF0220FFF768FF0320FFF7DF
:1058B00065FFBDE8084002F0BFBC006870476CDFC0
:1058C00070476DDF70476EDF70476FDF704772DFC4
:1058D000704773DF704774DF704776DF704777DF9C
:1058E00070477ADF70477CDF70477FDF704786DF65
:1058F00070478FDF704790DF7047AFDF7047B0DFD2
:105900007047B1DF7047B2DF7047B5DF704764DFC3
:10591000704766DF70470C2813D8DFE800F01412D8
:105920001212121209120712120D0B0002207047F8
:105930000320704704207047042914BF0620052067
:105940007047062070470120704702F00DB810B56F
:10595000044608460321FFF7DEFF032102462046E6
:1059600001F06AF918B1BDE8104001F0FDBF10BDAB
:105970000346032B10B50846144620D0042B24D12F
:1059800069B1124B18884FF6FF7398421DD013214E
:10599000FFF7A3FFC8B1BDE8104001F0E5BF104616
:1059A00002F086F808B101F0DFFF094B1B689C424A
:1059B0000BD101220321074801F03EF9EAE701215A
:1059C000FFF7A9FF01210246F5E710BD4284002040
:1059D000A499002054990020F8B50A4DAB889E1870
:1059E0001D2E14460DDC2F68FE1802F1010C07F87D
:1059F00003C07070B01C05F061FAAB8802331A194D
:105A0000AA80F8BD04990020F0B54E4D297895B0D4
:105A1000002940F092804C4C019110222046FEF764
:105A200081FC4A4B0199236018220EA8FEF77AFCEC
:105A300001238DF8383028231093454B1B78002B19
:105A40007DD0444B04AC03F1100618685968224617
:105A500003C20833B3421446F7D13F4C10220DEB7A
:105A60000201E01D05F01CFA002868D03B48012126
:105A70000460FFF728FF08B101F076FF384B08AA51
:105A800003F1100C174618685968164603C6083308
:105A900063453246F7D12068A2880C903148A3793B
:105AA000ADF83420002101228DF836300760FFF771
:105AB0000CFF08B101F058FF03238DF84C3004238C
:105AC0008DF80E3041F23053ADF81030264B08AA55
:105AD0009B798DF812300DF10F0104A8FFF717FF25
:105AE000012210460DF10E01FFF776FF1F4805F069
:105AF0003CFA1E49C2B20920FFF76EFF102208A926
:105B00000620FFF769FF104919480EAAFFF7DFFECC
:105B100008B101F029FF164C042221780120FFF77B
:105B2000DEFE08B101F020FF20780121FFF7D1FE51
:105B300008B101F019FF01232B7015B0F0BD062349
:105B4000BEE700BF8899002004990020E498002057
:105B50005099002070BB070014990020A0990020E4
:105B60001B990020849900205499002046BB07000F
:105B700040840020F0B504460146B1B0A34801F0CE
:105B80008FF82388262B3BD80F2B04D8012B00F04D
:105B9000C58031B0F0BD103B162BFAD801A252F8E7
:105BA00023F000BF2D5C07003B5C0700935B070000
:105BB0006D5C0700595D0700935B0700935B07006E
:105BC000935B0700935B0700935B0700775D07001B
:105BD000935B0700935B0700935B0700935B0700F1
:105BE000935B0700935B0700E95D0700935B070089
:105BF000DB5D0700935B0700935B0700E35C070036
:105C0000513B9AB2052AC4D8052BC2D801A252F83A
:105C100023F000BF295D0700775D0700935B070055
:105C2000935B0700FB5D0700CF5C0700784BA28801
:105C30001A80784B00221A70ABE78023744CADF8C1
:105C40002430754B208832221A6010A9012309AA3A
:105C5000FFF759FE08B101F087FE704B1B780BB9B6
:105C6000FFF7D2FE4FF6FF73238092E76C4B03AC35
:105C70009A79186899888DF822200790DA1DADF876
:105C800020101733264610685168254603C5083290
:105C90009A422C46F7D1634B09AA03F1180715461F
:105CA00018685968144603C40833BB422246F7D12A
:105CB0001868206056485C4A008810AB8521CDE901
:105CC0001456FFF712FE00283FF463AF82E0A37979
:105CD000002B7FF45EAF4E4B13211888FFF7FDFDBC
:105CE000F1E7237A012B7FF454AF4A4B00221A705C
:105CF000494B19680139196069B910AB142218466B
:105D0000FEF710FB05228DF84020149A00920FC870
:105D1000FFF740FB3DE7FFF777FE3AE73C4B0021FA
:105D20001888FFF7F6FDCEE7A379002B3FF431AFDB
:105D3000A27B043A022A3FF62CAF022B18BF0123A4
:105D40008DF840304FF4C173ADF84430304B10A99A
:105D50001888FFF7D4FDB6E7314A258A518D02F144
:105D6000180000238D420CBF014619460732A08857
:105D7000FFF7BDFDA7E7264B1C884FF6FF75AC4229
:105D800027D02A4B1B78F3B129490123082220464A
:105D9000FFF7B7FDF0B90246014602232046FFF7A0
:105DA000B0FDB8B92A460C212046FFF7A6FDA0F5A4
:105DB0004053023B012B7FF6ECAE08283FF4E9AEDE
:105DC000112880D1E5E61A4619462046FFF799FDCD
:105DD00079E7082001F0C8FDDBE60D4B00221888AA
:105DE0001146FFF788FD6EE70023ADF84030084B01
:105DF00010A91888FFF77DFDCBE6E188044BF72951
:105E0000188828BFF721FFF780FD5CE75499002030
:105E10004284002088990020448400209B9900201F
:105E2000149900202C990020969900205099002068
:105E30004899002030B5434A434800231370434A31
:105E400095B0137000F046FB01F0F2FD0446002807
:105E500061D13F48FEF7C6FB00285FD13D4B0122D0
:105E60001A7011233C488DF8043005F07EF83A4949
:105E700082B201A8FFF737FD08B101F075FD0822D5
:105E8000002104A8FEF74EFA344A4FF0C87304A864
:105E9000CDE90423FFF725FD08B101F065FD0021E0
:105EA0000C2201A8FEF73EFA0823ADF804302C4B73
:105EB00002932C482C4B039301A900F03FFD08B13D
:105EC00001F052FD294D4022002104A8FEF72AFAD4
:105ED000284605F04AF80595254DADF810002846EE
:105EE00005F043F80795234DADF81800284605F056
:105EF0003CF81123ADF8300004A8ADF84C300D95F6
:105F000000F0E2FF1C4B30221A7007225A70102258
:105F10009A70FFF779FD204615B030BD04A8FFF751
:105F2000D0FC08B101F020FD9DF8113004A8013328
:105F30008DF81130FFF7C3FC002892D001F014FD5A
:105F40008FE700BF9B9900207159070095990020A9
:105F5000149900205099002046BB07000800180043
:105F6000CD5F0700549900204B5907004DBB070037
:105F700054BB07005DBB07009699002010B50F4B7E
:105F800001221A700E4B18884FF6FF73984207D003
:105F90001321FFF7A2FC08B101F0E6FC002010BDC0
:105FA000084C2278002AF9D0074B1878FFF793FCA9
:105FB00008B101F0D9FC00232370EFE79B99002082
:105FC000428400208899002040840020F0B50B789E
:105FD00089B005460C46092B23D8DFE813F02B00C7
:105FE000330042000A0018002400FF0008014500A9
:105FF0000D0100F08FFB0421FFF78DFC0421024608
:10600000284600F019FE60B101F0AEFC09E0FFF790
:10601000B5FF08B101F0A8FC00F09CFB08B100F04E
:10602000A7FB09B0F0BDFFF7A9FF0028F7D001F0EA
:106030009BFCF4E7734B01221A704B681A78724B81
:106040001A70EEE76F4B02261E704B681B78012B0F
:10605000E7D100F011FB3146FFF75DFC0246314607
:10606000CEE7684B0322EBE70520FEF70BFF654BFD
:106070001E78022E2AD0032E50D0012ED1D104AB8F
:10608000102218460021FEF74DF95F4A237A127854
:106090008DF81020002203920C2B4FF00302CDE963
:1060A0000120DCD163681846FFF707FC0590181D36
:1060B000FFF703FC069003F10800FFF7FEFB0790D3
:1060C00001A800F00DFA0028ABD0C4E7237A13F042
:1060D000030011D0C0F104021A44D2B219464FF0A5
:1060E000000C0E4601316768C9B2914207F806C03C
:1060F000F7D11B1A043323720123049363680693B8
:10610000237A04A89B08059300F0D8FA002888D0C9
:106110000221FFF700FC0221024671E7207A830783
:1061200002D0324631466BE7384E0190314601F0DD
:1061300095FC014618B12846FFF709FC71E7616834
:10614000019A306804F0BAFE019801F0EDFC0146B6
:106150000028F0D101A9304601F0F6FC01460028E4
:10616000E9D104230493019B9B08059304A8336899
:10617000069300F011FA074640B9254A237A1168C0
:106180000B441360234B32681A604AE709281BD17D
:106190001F4B217A1A68114419601F4B1B78002B82
:1061A0003FF43FAF1D4C2388013B9BB22380002B63
:1061B0007FF437AF284600F005FD08B101F0D4FBAD
:1061C000174B1B8823802CE7306801F071FC0146D7
:1061D00010B12846FFF7BBFB3946ACE70E4B012256
:1061E0001A700F4A8B8813800C4A138019E70A4AE9
:1061F000002313700A4AF8E7054B196800F0A6FC63
:1062000001E700BF959900209C990020A8990020E3
:106210008C990020A4990020949900209299002044
:106220009099002018DF7047012973B514460D4678
:106230001A4608D0032912D014B3204602B0BDE894
:10624000704001F091BB0F4B1B78052BF4D10E4B26
:106250001B68002BF0D0214604209847ECE7094E3C
:106260003378022BE8D1094B01925B689847064BC3
:1062700035701B68002BDFD0019A21462846ECE7D9
:1062800002B070BDB4990020AC990020B8990020EC
:1062900030B589B003AC142200212046FEF742F845
:1062A000094B1B88ADF80E30084BDB6806930025C0
:1062B000079B8DF80C50009394E80F00FFF76AF8E5
:1062C000284609B030BD00BFC4990020109A0020B4
:1062D00000B589B003238DF80C300A4B1B88ADF84C
:1062E0000E30094B5A6804929A68DB680693079B44
:1062F0000093059203AB0FCBFFF74CF8002009B0D9
:106300005DF804FBC4990020109A002000B589B004
:1063100001238DF80C300F4B1B88ADF80E3043F283
:1063200004031A680C4B9A420ABF43F208034FF465
:1063300080521A68094B596804919968DB68069382
:106340000591009203AB0FCBFFF724F8002009B0B2
:106350005DF804FBC4990020DBE5B151109A0020E0
:1063600000B589B003AB142200211846FDF7DAFF0F
:1063700004228DF80C20002200920FC8FFF70AF8C3
:1063800009B05DF804FB00001B4BF7B51B4C1C600B
:106390001B4B02221A70FEF771F91A4B48B11968AB
:1063A000204600F007FFB8B103B0BDE8F04001F0AF
:1063B000DBBA1B681D0BC3F30B0303B10135124F8E
:1063C000002443F20406A54208D100230B480093A1
:1063D0001A460321FFF728FF03B0F0BD3368BB4224
:1063E0000ABF43F208034FF48050186800EB0430F2
:1063F000FEF72CFE0134E6E7289A0020209A0020C0
:10640000B4990020C8990020DBE5B15170B50C4665
:1064100086B00321CDE902100546960802A8019333
:1064200004940596FFF7FEFEE0B1B4F5805F019B92
:1064300011D8012302A8CDE90235CDE90446FFF7C2
:10644000F1FE78B9032302A8CDE90235CDE904466F
:10645000FFF7E8FE06E01A46E11AE81AFFF7D6FF52
:106460000028E6D006B070BD1FB5134B0193134B47
:10647000134900241C70134B01A81C80CDE9024471
:1064800000F076FE104B10B11C7004B010BD43F24A
:10649000040211680D4A914208BF43F208020849FC
:1064A0000CBF12684FF480524A60094A0021116003
:1064B00001221A70E9E700BF296207000C9A002048
:1064C000209A0020C4990020B4990020DBE5B15146
:1064D000B0990020014B1860704700BFAC990020B4
:1064E00010B54368224C0FCB84E80F002278500788
:1064F00001D5910735D16068830732D1A368990728
:106500002FD1E16811F003042BD118440844194934
:10651000B3F5204F086026D843F204031968164BE0
:10652000994209BF43F208034FF4D8231B68C3F50F
:10653000DA23984217D8114B114919601149596053
:10654000D10709D5104A9A60104B1B78012B0CD14A
:10655000FFF71AFF204610BD92074CBF0C4A0D4AA8
:10656000F1E70624F6E70C24F4E70824F2E700BF7D
:10657000109A0020C8990020DBE5B151B89900209D
:1065800089630700616307000D630700B499002069
:10659000D1620700916207002DE9FF47002859D01A
:1065A000816811F0030457D12E4B1B78052B55D170
:1065B000DFF8BC8042682C4ED8F80030950003EB21
:1065C0008203326893424746B24608D94FF0FF3300
:1065D000C8F800300C24204604B0BDE8F0870391D1
:1065E000FEF74CF8DFF88C90039948B1D8F80030EA
:1065F000D9F800002A4600F0CDFDE8B10446EAE7EC
:1066000043F20403D8F800601A68184B9A420ABF94
:1066100043F208034FF480501868039100232A4680
:106620003044FEF769FA0399D9F8000000950B464B
:1066300000220121FFF7F8FD3B681D44DAF8003025
:106640003D609D420CD1FEF719F80028C3D1FEF73A
:1066500035FAC0E70E24BEE71024BCE70824BAE7E9
:106660000924B8E7B4990020C8990020DBE5B151AE
:10667000B0990020289A002070B50B4B1D6885B991
:106680000A4E3378042B0CD1094C0A4B21781A7826
:106690000948FEF759FA10B90523337070BD25700B
:1066A000FCE70820FAE700BFB0990020B499002069
:1066B0000C9A0020109A0020CC990020F8B5114BBC
:1066C0001A78032A03D0042A03D0082416E00422EF
:1066D0001A700D4B1C68002CF7D10C4D43682F78B5
:1066E0009E0007EB8303402B0AD881680848324696
:1066F000384404F0E3FB2B7833442B702046F8BD7C
:106700000924FBE7B4990020B09900200C9A0020DE
:10671000CC99002010B50B4C2378052B10D10A4BD7
:106720000A4A1B68116899420AD106232370084B54
:106730001B685868FEF742FA08B90723237010BD9A
:106740000820FCE7B4990020C8990020B0990020E7
:10675000289A0020044B1B78072B02D1034B9B681F
:1067600018470820704700BFB4990020B89900204E
:1067700000B589B006238DF80C30079B009303AB5E
:106780000FCBFEF707FE09B05DF804FBF0B58DB046
:1067900005A8FEF773FF089C002C3ED00B9E04F565
:1067A0008053B3422DD91E4BA6F5805503EA5505FB
:1067B00043F208031B689C420BD869002B46A4EBEC
:1067C000450201F5805106EB4500FFF71FFE0DB0B5
:1067D000F0BD05F58053012701A8CDE90173CDE98E
:1067E0000337FFF71FFD0028F1D14FF4805301A8B4
:1067F000CDE9023301970497FFF714FD0028E6D195
:10680000DBE70123CDE90136A4084FF4805301A84A
:1068100003930494FFF706FDD9E72046D7E700BFAE
:1068200000F0FFFF00B58DB005A8FEF727FF09981F
:1068300090B1089B9BB943F204031A680B4B9A4230
:1068400010D143F208031B6880080022039001A8BE
:10685000CDE90123FFF7E6FC0DB05DF804FB0B9AD0
:106860001344F1E74FF48053EEE700BFDBE5B1518D
:1068700000B58DB005A8FEF701FF0998A8B1089BE7
:10688000B3B943F204031A680C4B9A4213D143F292
:1068900008031B680393800803214FF4E822049047
:1068A00001A8CDE90112FFF7BDFC0DB05DF804FBB6
:1068B0000B9A1344EEE74FF48053EBE7DBE5B1515D
:1068C00010B58CB005A8FEF7D9FE0898B8B10B9C9E
:1068D00000F58053A34214D943F208031B68984281
:1068E0001BD80F4BA4F5805203EA52035900A0EBCA
:1068F000430201F5805104EB4300FFF787FD0CB024
:1069000010BD800803224FF48053049001A8CDE904
:1069100001230394FFF786FCF1E70E20EFE700BFA9
:1069200000F0FFFFA8DF7047AADF7047ADDF7047B8
:10693000AEDF7047B0DF704762DF70472DE9F04788
:106940000E4694B00546002800F0F980002900F0BA
:10695000F6804B68002B00F0F2804FF6FF73038047
:10696000784B04AA03F1100C1746186859681446AE
:1069700003C4083363452246F7D141F230530DF189
:106980000A013846ADF80830FFF7D6FF0446002864
:1069900040F0D1802A1D02A90120FFF7C3FF044661
:1069A000002840F0C8809DF80A30AB7101461C22D7
:1069B0000DA8FDF7B7FC9DF834300E9443F00403A6
:1069C0008DF8343001AFAB798DF80E30214641F2AD
:1069D000325303223846CDE91044CDE91244ADF8D4
:1069E0000C30FDF79FFC9DF8063023F01F0343F0A9
:1069F0000303214614224FF4885A08A88DF8063064
:106A0000ADF804A00DF10C08FDF78CFC4FF0140953
:106A1000A8880A9405F1080308AA0DA90C94CDE9E9
:106A20000887ADF82C90FFF77FFF0446002840F060
:106A3000828001461C220DA8FDF774FC9DF83430BD
:106A40000E9423F0180343F018038DF83430AB791B
:106A50008DF80E30214641F2315303223846CDE9FC
:106A60001044CDE91244ADF80C30FDF75BFC9DF805
:106A70000630ADF804A023F01F0343F013032146B2
:106A80004A4608A88DF80630FDF74CFC1723ADF8F0
:106A90002C30A8880A9405F1100308AA0DA90C94BB
:106AA000CDE90887FFF740FF0446002843D101469F
:106AB0001C220DA8FDF736FC9DF834300E9443F0EF
:106AC00002038DF83430AB798DF80E30214641F257
:106AD000345303223846CDE91044CDE91244ADF8D1
:106AE0000C30FDF71FFC1123ADF804309DF8063083
:106AF00023F01F0343F0030321464A4608A88DF8FC
:106B00000630FDF70FFC02230A93ADF82C30A8885D
:106B10000C9605F1200308AA0DA9CDE90887FFF717
:106B200003FF044638B97368AB62B36803B1EB6224
:106B3000054B01221A70204614B0BDE8F0870E24E0
:106B4000F9E700BF80BB07002C9A002070B505460E
:106B500086B070B302884FF6FF739A422BD0174B62
:106B60001B7843B3164C1022080AE170207121FAF9
:106B700002F0090E072301266071A17102A800210D
:106B80006370ADF806302270A670FDF7CBFB2B8A40
:106B9000ADF808300023ADF80C3028888DF80A6075
:106BA0000DF1060302A9CDE90434FFF7C1FE06B0DA
:106BB00070BD0E20FBE70820F9E700BF2C9A0020EB
:106BC0002D9A002030B5044687B060B302884FF696
:106BD000FF739A4229D0164B1B7833B3154D1123FE
:106BE0002B700B0A6970AB700B0C090EEB702971DE
:106BF00005230021102202A8ADF80630FDF792FB14
:106C0000238AADF8083001238DF80A300023ADF84F
:106C10000C3020880DF1060302A9CDE90435FFF7F9
:106C200087FE07B030BD0E20FBE70820F9E700BF64
:106C30002C9A00202D9A002030B5044687B038B336
:106C400000884FF6FF73984224D0134B1B780BB388
:106C5000124D102369700321ADF80610AA700021AF
:106C60001A4602A82B70FDF75DFB238AADF80830A9
:106C700001238DF80A300023ADF80C3020880DF187
:106C8000060302A9CDE90435FFF752FE07B030BD77
:106C90000E20FBE70820F9E72C9A00202D9A00200F
:106CA00070B50D4688B0044650B149B1826A3AB118
:106CB0000B88502B47D005D8102B41D0112B52D028
:106CC00008B070BD512BFBD18E79022EF8D10A8904
:106CD000038A9A42F4D18B7B043B022BF0D99DF8B6
:106CE00016308DF8106043F001038DF816300B8AD2
:106CF000ADF818304B8AADF81A30082201F11403B0
:106D000001A800210793FDF70DFBA18A20880196B9
:106D100001AACDF808D0FFF709FE38B3E36A03B142
:106D2000984740F2FD132088ADF8143004A9FFF70E
:106D300001FE0028C4D0E36A002BC1D09847BFE70A
:106D40008B882380BCE7C98803899942B8D108237E
:106D50008DF81030123535F8023C8DF81830059555
:106D600004A99047ACE74FF6FF73EAE79DF80030BF
:106D70002088DB07D5D5002604A9ADF81460FFF7FD
:106D8000D9FD0028D7D1297D4B1E072B40D8DFE83D
:106D900003F004192226282A3D2C6B8A8DF8046002
:106DA000012B05D8062201212046FFF745FFC0E749
:106DB000012315358DF80C300295A36A01A92046F0
:106DC00098477DE76A8A01239A428DF80430F0D80B
:106DD00006220221E8E702238DF80430EDE70323C1
:106DE000FAE70423F8E70523F6E76B8A022B02D8BB
:106DF00003220821D8E7AA7D6B7D43EA0223002BFA
:106E0000ADF808300CBF07230623E5E70923E3E7C5
:106E10000322C9E7A8DF7047AADF70472DE9F041D8
:106E200080468EB015461F460E4611B9084600F042
:106E30009BFD15B9284600F097FD1C220DEB0200C2
:106E40000021FDF76FFA9DF81C30ADF80480002496
:106E500043F002038DF81C302146012303226846CB
:106E60008DF80630CDE90A44CDE90C440894FDF7CD
:106E700059FA3B788DF800307B788DF801309DF819
:106E8000023023F01F0343F002032146142202A81C
:106E90008DF80230FDF746FA0A48CDF80CD001AB68
:106EA000029302AA149B0088ADF8105007A9ADF810
:106EB0001240ADF814500696FFF7AEFF0EB0BDE8D5
:106EC000F08100BF549A002030B587B041F60A0324
:106ED0002B4AADF80C30044603A901208DF80E00B2
:106EE000FFF798FF0546D8B92288E2B922894AB14E
:106EF000244B0093E16804F13C0342F62420FFF7A1
:106F00008DFFD8B9228C4AB11F4B0093616A04F1FE
:106F10003C0342F62620FFF781FF78B9A36B7BB9CB
:106F2000284607B030BD194B0093616804F13C035B
:106F300042F62920FFF772FF0028D7D00546EFE779
:106F40001A788DF810205A888DF81120120A8DF8C1
:106F500012209A88DB888DF815301B0A8DF81320D3
:106F60008DF81630120A0A4B8DF814200093072270
:106F700004F13C0304A942F65020FFF74FFFDDE780
:106F8000549A0020449A0020349A00203C9A002011
:106F90004C9A002029DF704728DF704723B502464E
:106FA0000846C96843680093044B53F8215043696D
:106FB00010F80C1BA84702B020BD00BF589A002053
:106FC00070B5194C2378182202FB03431A795D69C6
:106FD000012A03D0032A1AD00F2070BD134AD868A3
:106FE00016689A689969A2EB0632B2F5805F284468
:106FF00001EB063100EB063034BF92084FF480629B
:10700000FFF7C8FF0028E8D10123A370E5E74FF0A0
:1070100080531869054B1B6880B2B5FBF0F018442B
:10702000FFF7BAFFEEE700BF689A0020609B0020E0
:1070300070B5134D6C780A2C1FD02E783444E4B20E
:10704000092C84BF0A3CE4B2182606FB0454A26152
:10705000207103C9A360049BE360AB7804F11002C4
:1070600082E8030023B100206B7801336B7070BDA0
:10707000FFF7A6FF1128F7D1F5E70420F7E700BFD7
:10708000689A0020F8B527498B780C462BB100266A
:1070900002288E7002D003283AD0F8BD0D78224A1B
:1070A000182101FB0541136889680133B1EB033FE7
:1070B00013601BD863781660013B63706B1CDBB2F6
:1070C00018270426092B17FB056188BFA5F10903C2
:1070D000214400202370FFF761FF07FB05430022D6
:1070E000C3E904621A719A609A61DA606378002BCE
:1070F000D3D0A378002BD0D1FFF762FF0028CCD0EB
:107100001128CAD02178182303FB0141043105E07E
:107110000B78182202FB031104310D20BDE8F84062
:10712000FFF73CBF689A0020609B00200C4B0022B8
:107130001A600C4B0A201A809A7004210138C3E9A6
:1071400004121A719A609A61DA6003F11803F5D19A
:10715000054B1860054BC3E90000C3E90200704706
:10716000609B0020689A00205C9B0020589A0020B9
:10717000064A03461068042807D00860411C1160C5
:107180001A68034B43F82020002070475C9B0020C6
:10719000589A002013B5CC180C43A40708D10093CB
:1071A00013460A4601460120FFF742FF02B010BD18
:1071B0001020FBE707B500220B4600920146032092
:1071C000FFF736FF03B05DF804FB0000094A53786F
:1071D00091780133DBB2994208BF002311789942BC
:1071E0001FBF03705078182303FB002014BF043026
:1071F00000207047649B0020082910B5044602D087
:10720000002000F0B1FBD4E90030BDE81040184781
:1072100073B5054600240DF107000E468DF80740B2
:1072200000F0B0FB0DF10600FFF7D0FF90B1067043
:10723000094B9DF8062045605A709DF8070000F044
:10724000C5FB24B9054B4FF48012C3F8002120463A
:1072500002B070BD0424F0E7649B002000E100E070
:10726000204B21491A682F2300BF00BF00BF00BF79
:1072700000BF00BF00BF00BF8A422FD000BF00BFC9
:1072800000BF00BF00BF00BF00BF00BF00BF00BF06
:1072900000BF00BF00BF00BF00BF00BF00BF00BFF6
:1072A00000BF00BF00BF00BF00BF00BF00BF00BFE6
:1072B00000BF00BF00BF00BF00BF00BF00BF00BFD6
:1072C00000BF00BF00BF00BF00BF00BF00BF00BFC6
:1072D00000BF00BF00BF00BF00BF00BF013BC3D164
:1072E000704700BF3C8400200024F4000C4B0D4884
:1072F0004FF4003210B5C3F8802001244FF48033DE
:10730000C0F84833C0F808334460FFF7A9FF064BC4
:10731000846000201860FFF7A3FF044B187010BDB5
:1073200000E100E000100140809C0020719C0020E2
:107330002DE9F3412549264B0025C1F84051C1F8FC
:107340004451C1F84851C1F84C51C1F80051C1F83D
:1073500004511B68002B34D0D1F804451D49DFF8D7
:1073600088800968641A24F07F442F461968A14276
:1073700012D81A7CDE69641A0D4462B15A691F740E
:1073800000929B69019342460821684600F056FA34
:1073900008B100F0E9FABEB90F4A104B11781B781A
:1073A0008B4205D10133DBB2022B08BF00231370DF
:1073B00012780B4B43F822500A4B4FF48012C3F85B
:1073C000002102B0BDE8F0813346CFE70010014054
:1073D000849C0020809C00207D9C00207C9C0020C0
:1073E000749C002000E100E0F97107002DE9F74FDF
:1073F000A84AA94913780978A84C99423BD001338F
:10740000DBB2022B08BF00231370A5491278A54BED
:107410000F6853F822003B1823F07F4300220B60D3
:10742000236815461646944613B942B1236006E018
:10743000196881420DD902B12360091A1960012629
:107440002368DFF8689200930027BDB9DFF868A2CF
:1074500067E0401A0E44D968D3F81CE0C3F800C0B6
:1074600031B1BA1922F07F42C3E90121DD611D4625
:1074700073460122D8E700252E46E1E72846ED694C
:10748000874A43681268DFF834E2D0F808C0991AD6
:1074900021F07F41714500F2AD806144016001221D
:1074A000027422680023C0E90133C361002A40F05E
:1074B000AB802060C9E75A1C9AF80210D4F800B0DB
:1074C000D2B291428AF8002004BF00228AF800203C
:1074D000182202FB03A31A799868022A77D0032A9C
:1074E00000F08580012A1CD190F810C0BCF1000F7B
:1074F00017D1D96841601A6982605A69C2609B6974
:107500008361694B1B78002B18BF61464160B7E768
:10751000904200F09E809046D269002AF8D1002364
:1075200003749AF800309AF801209A42C3D1236874
:1075300027B9009A9A4201D1002E42D0002B00F0C8
:107540008580D3F80090594C554BD4F804651868E1
:10755000574F351A3B7825F07F4503359BB94FF4DB
:107560008033C4F84433C4F80433524B4FF4003230
:107570004FF00108C3F880211A60C4F80080FFF7BB
:107580006FFE87F80080A9452CBF4844401920F0C1
:107590007F40C4F84005D4F804359B1B23F07F439B
:1075A000801B033320F07F4083420AD9D4F804358E
:1075B000C4F84035FFF754FE3E4B4FF40032C3F899
:1075C0000021394B00221A7003B0BDE8F08F5A46F3
:1075D000D846A2E78BF81020DBF81CB00123BBF1E2
:1075E000000FF7D1002B9CD0C4F800B099E700231E
:1075F0001A46F4E7D31A23F07F43634534BFACEB5C
:107600000303002303604AE70168136899421BD80B
:10761000591A1160C2614CE7A1EB0C01D3F81CC0F0
:107620001A46BCF1000F0AD06346D3F800C08C455F
:10763000F2D3ACEB010CC3F800C09C4613460160CA
:10764000C0F81CC0D86100E71346EEE7FFF74EFE16
:10765000B7E7404510D1DBF81C30236063B9DFF891
:1076600040E001920121C9F80810CEF800300E4B1D
:107670001970FFF7F5FD019A1368D269C8F81C204C
:1076800012B111680B44136023685B4518BF0127D2
:1076900045E700BF7C9C00207D9C0020849C00204E
:1076A000809C0020749C0020709C002000100140F1
:1076B000719C002000E100E0649B0020FEFF7F0041
:1076C00008B5FFF713FE104B00200B2218809A70AC
:1076D0000E4B18600E4B18700E4B18700E4B4FF47B
:1076E0008012E021C3F8802183F814131A6002F19C
:1076F0008042A2F56F22C2F8080583F81113074BE8
:10770000D2F804251A6008BD649B0020849C0020E8
:107710007C9C00207D9C002000E100E0809C0020FB
:10772000074B9B784BB132B128B10368187C20B964
:1077300059745A617047072070470820704700BF8E
:10774000649B00202DE9F743DFF8848098F802302D
:1077500005460E461746ABB3A0B3042930D943699A
:1077600083B3437C0024012B0DF107000CBF894635
:10777000A1468DF8074000F005F90DF10600FFF76E
:1077800025FDD8B1012303700F4B4560D3F80435B4
:10779000C0E90497C0E902369DF8063088F8013048
:1077A0009DF8070000F012F924B9084B4FF480123D
:1077B000C3F80021204603B0BDE8F0830424EFE7BE
:1077C0000724F7E70824F5E70010014000E100E096
:1077D000649B0020064A92783AB130B1426922B1E6
:1077E000002202740221FFF713BD0820704700BF7A
:1077F000649B00204B1C30B5DB00044612F00300F4
:107800009BB20DD1074D2A601A44074B1A60074BF3
:107810001870074B1870074B1C80074B198030BD40
:107820000720FCE7909C00208C9C0020889C002076
:10783000989C0020949C0020969C00202DE9F34702
:107840002B4F3B888B4206460D4690464BD3002477
:107850000DF107008DF8074000F094F8254B2648FD
:107860001A78264B008893F800C084455FFA8CF1A3
:1078700038BF4C1CD2B238BFE4B2A2422DD01C7823
:107880001A78D1B2904286BF0131C9B20021197075
:107890009DF8070000F09AF84FF6FF739C4224D041
:1078A000DFF86090D9F800204FEAC40A42F834802B
:1078B00002EBC403A6B19DB1114B38881B682A4660
:1078C00004FB0030314603F0F9FAD9F80030534494
:1078D00000209D8002B0BDE8F0874FF6FF74D7E727
:1078E00000209880F6E70920F4E70420F2E700BFC3
:1078F000949C0020989C0020969C0020889C00204E
:107900008C9C0020909C0020F8B5114C114D26460F
:1079100022782B789A4200D1F8BD0F480F4A23787D
:10792000126807880E4802EBC301006852F8332042
:10793000898803FB070090470A4922780988D3B257
:10794000914286BF0133DBB200233370E0E700BF12
:10795000989C0020889C0020949C0020909C0020F3
:107960008C9C0020969C00201FB50021CDE90210C0
:1079700001AA44F20100ADF80410FCF775FE05B051
:107980005DF804FB70B5EFF3108672B60C4A94688C
:1079900001239CB993600B4B0B4DD3F88010294009
:1079A0001160C3F88050D3F8841051604FF0FF325B
:1079B000C3F88420047006B962B670BD0370FAE79C
:1079C00060CD002000E100E0FC06FFBD10B5084BD3
:1079D0009A685AB150B9EFF3108172B6054A1C6823
:1079E00014605C685460986001B962B610BD00BF55
:1079F00060CD002000E100E010B5044622B11088FF
:107A000021448C4203D110BD4FF6FF70F8E743BA12
:107A100014F8010B9BB24340C3F30312534083EAB3
:107A200003335A0102F4FF529BB283EA0200E8E7F3
:107A3000064B074A00201870064B1A600822C3E95B
:107A40000120C3E90300C3E905007047999C0020A9
:107A50009C9C00207CAF00200020704730B5F9B11D
:107A6000124B5C6800220A60E4B1B0F5167F1BD8A7
:107A7000D8681D680130013CD86018695C604FF41B
:107A8000177404FB00540C60012101FA00F4996999
:107A9000013000F00700214318619961104630BDA4
:107AA0000E20FCE70420FAE70C20F8E77CAF00206A
:107AB000F0B51C4B996899B35D691E686C1A04F0A7
:107AC000070422464FF4177707FB026C604511D17B
:107AD000012000FA02F598696840986100205E680C
:107AE000D3F818C04FF0010E724400250E4402F086
:107AF00007020AE0013202F007029542E4D11020A9
:107B0000EDE749B10139144601250EFA04F414EAEF
:107B10000C0FA6EB0107F4D00DB1C3E90171F0BD64
:107B20000420FCE77CAF0020064A13691268013B81
:107B30004FF4177103F0070301FB0323C3F8580246
:107B4000002070477CAF002030B5C0B1B9B10E4BFA
:107B5000DA68B2B1013ADA609A681D6801329A6057
:107B60005A694FF4177404FB025404600132D4F8CC
:107B70005802086002F007025A61002030BD0E2052
:107B8000FCE70420FAE700BF7CAF00203FB40C49BB
:107B9000086890B10B4B1C687CB10B4A1568CDE9A5
:107BA000025000238DF804300B60136004AB13E91E
:107BB0000700234604B030BC184704B030BC7047FF
:107BC000A0AF0020A4AF0020B0AF0020DC2810B58B
:107BD00009D0DD2810D0C02816D1FFF7D7FF0E4BF3
:107BE0000E4A1A6010BD0E4A0E4B19681368581CD5
:107BF0001060C022CA54F2E7094A0A4B1968136898
:107C0000581C1060DB22F5E7064B054A196813681B
:107C10005C1CC8541460E2E7488400203D7C0700E7
:107C2000A0AF0020B0AF0020C02802BF014B024A25
:107C30001A607047488400203D7C0700C02810B4BB
:107C400009D0DB280BD0094B094A196813685C1C62
:107C5000C854146006E05DF8044BFFF797BF054B6E
:107C6000054A1A605DF8044B704700BFB0AF0020B2
:107C7000A0AF002048840020CD7B070007B501227B
:107C80008DF807000DF10701002002F0B1FB00287C
:107C90000CBF0420002003B05DF804FB10B5064AB9
:107CA000064C12682368D05CFFF7E8FF10B9236820
:107CB0000133236010BD00BFB4AF0020A8AF002087
:107CC00008B5C020FFF7DAFF28B9034B1B6813B9CA
:107CD000024B034A1A6008BDA8AF00204C84002064
:107CE0009D7C070008B5DB20FFF7C8FF10B9024BE9
:107CF000024A1A6008BD00BF4C840020017D0700C5
:107D000010B50C4A0C4C12682368D35CC02B03D00E
:107D1000DB2B0DD0042010BDDC20FFF7AFFF0028C7
:107D2000F9D12368054A01332360054B1A60F2E755
:107D3000DD20F2E7B4AF0020A8AF00209D7C070053
:107D40004C8400207FB5164C164D174E002002F0D3
:107D5000F5FA18B322689AB12968336899420FD2AC
:107D6000012201A9002002F0F5FA10B94FF0FF300E
:107D700001E09DF804000D4BC0B21B689847E5E791
:107D80000B4B1B6853B10292064A02211268039200
:107D90008DF8041004AA12E90700984704B070BDDA
:107DA000B0AF0020A0AF00209CAF0020488400208E
:107DB000A4AF0020014B186000207047A4AF002042
:107DC000034B1A780AB901221A700020704700BFCD
:107DD00098AF0020014B00201870704798AF00202A
:107DE0002DE9F04F85B000284FD0294F3B78012B6B
:107DF00007D0022B14BF08240424204605B0BDE898
:107E0000F08F244D244A254E254CDFF8A0A0DFF842
:107E1000A0B0116000232B6002233B70214B306027
:107E20002360914698462A68D9F800309A4215D3C3
:107E3000C4F80080FFF744FF044608BB1A4B1B68D8
:107E400001223A70E3B18DF80420326802922A6868
:107E5000039204AA12E907009847CEE733682A681C
:107E60009A5CC02A03D02A689B5CDB2B04D1236870
:107E7000534508BFC4F800B023689847042801D1CF
:107E80000024BAE71128CED1FAE71024B5E700BFE5
:107E900098AF0020A8AF0020ACAF0020B4AF002006
:107EA0004C840020C17C0700A4AF00209D7C07000B
:107EB000E57C0700054B064A1860064B1960064B27
:107EC00000201860054B1A60704700BFB0AF00205B
:107ED000297C07009CAF0020A0AF00204884002030
:107EE000064B07481B68DB00DBB20022037004214D
:107EF0005B4242708270C370FFF772BFE0AF002038
:107F0000B8AF002070B52C4C2C4E02462546237885
:107F1000012B14D0022B21D0002B4CD1002A4AD1A6
:107F20002748FFF757FC08B1FFF71EFD254B1B68DC
:107F3000002B40D0244ABDE8704010781847012A31
:107F400039D13168214B06311868FFF749FF08B174
:107F5000FFF70AFD02232B700022D8E7022A17D070
:107F6000032A0CD03ABB1A4B15481A6041F67F2100
:107F7000FFF7E8FBF8B1BDE87040FFF7F5BC154A24
:107F80001368013303F00703136000232370E3E752
:107F90000F4A1368052B0AD001331360074B196889
:107FA0000A4BBDE8704018680631FFF719BF064B51
:107FB00001221A70E9E770BD04B00020F8AF00207C
:107FC000BCAF0020F4AF0020FCAF00200CB00020BC
:107FD00000B00020E4AF0020F0B585B004AB03E9A9
:107FE00007009DF80400032878D8DFE800F00802B5
:107FF000A7AA012005B0BDE8F040FFF783BF039EAC
:10800000564C032E40F28680029D6B7813F00F02CF
:1080100069D00E2A7ED1042E59D02A78500656D522
:10802000110654D51A44AB781A44EB781A4412F06E
:10803000FF024CD1B71E39462846FFF7DDFCEB198D
:108040005A78EB5D43EA0223984240D144492A78AA
:108050000B6802F00702D8B282422BD1013303F041
:1080600007030B60FFF73CFF3E4B012230461A70BE
:10807000FFF75AFD08B1FFF777FC38494FF4167047
:10808000FFF7ECFC002862D0042802D00020FFF7A4
:108090006BFC35480521FFF70DFF08B1FFF764FCC5
:1080A000324B1B68002B56D04FF0000005B0BDE8E6
:1080B000F040184720684FF41671FFF7FBFE08B137
:1080C000FFF752FC05B0BDE8F040FFF709BF20689C
:1080D0004FF41671FFF7EEFE00283CD005B0BDE866
:1080E000F040FFF741BC2978AA780B441344EA78A2
:1080F000134413F0FF030DD11D4A12680132C1F37E
:10810000C20102F00702914204D11A4A03201370FF
:10811000FFF7F8FE25681DB14FF416712846D9E720
:108120000E494FF41670FFF799FC60B1042802D095
:108130002846FFF719FC0C480521CBE70A48052122
:10814000C8E70320CAE720684FF41671C2E7206829
:108150004FF416719FE705B0F0BD00BF08B00020D6
:10816000E0AF0020DCAF0020E8AF0020F0AF00203F
:10817000E4AF0020FCAF00200220FFF7C3BE0000E8
:10818000074B10B5044618600648FFF713FE08B108
:10819000FFF7EAFB002C0CBF0E20002010BD00BF33
:1081A000F0AF0020D97F0700184A1948002310B506
:1081B0001360184A1360184A1360184A1370184A5B
:1081C0001370184B184A01211960184B1960184B8D
:1081D0001970FFF7A5FA08B1032010BDFFF728FCBE
:1081E0000028FAD1FFF7ECFD0028F6D1114C4FF42E
:1081F00016702146FFF732FC0028EDD120684FF4BD
:108200001671BDE81040FFF755BE00BF0CB000204E
:1082100090BB0700F8AF002000B00020DCAF0020CA
:1082200004B00020E0AF002079810700E4AF002017
:10823000FCAF002008B000200C4A08B500231360F2
:108240000B4A1360FFF708FC08B1FFF78DFBFFF73F
:10825000C1FD08B1FFF788FB0648FFF7BBFA042809
:1082600002D10020FFF780FB002008BDF4AF002002
:10827000F0AF0020BCAF002037B50D46044698B1E2
:1082800091B10A4B19780022019259B101A91A70D3
:10829000FFF75AFC019B063B2B80236804332360C5
:1082A00003B030BD0420FBE70E20F9E7DCAF00206F
:1082B0000438FFF7FDBB00000048704750840020E1
:1082C000044B054A1878054B002814BF1046184681
:1082D000704700BF10B0002016BC0700B4BB0700F9
:1082E000074B187020B1074B1F229A725222DA7284
:1082F0004FF0805304495A6E04481B6E02F006BECC
:1083000010B000205084002094BB070094B00020DF
:1083100010B568B9134B14481968022202F0CEFD5B
:108320000123013311485B0043F44073038010BD07
:10833000052814D80B4B53F82040204602F015FEB8
:10834000C3B21F2B28BF1F23084A2046E1188842CA
:1083500002F10202E5D010F8014B1480F7E700208B
:10836000E5E700BF6484002014B0002012B00020B4
:108370004DDF70474EDF70474FDF704750DF70476B
:1083800012DF7047002000F089BD00001FB5244BAC
:10839000402283F8272300238DF8073043F204039B
:1083A00004461A681F4B9A4227D10DF10700FFF7C8
:1083B000E7FF9DF8073003B30120FFF7DBFF012043
:1083C000FFF7D6FF0120FFF7D7FF02A8FFF7D6FF80
:1083D000029BDA0702D5002000F0C4FE029B9B0737
:1083E00002D5022000F0BEFE2046FFF779FF00F024
:1083F0000BF902F01DFD04B010BD002301A88DF89B
:108400000430FCF78DFD084B039303A8FCF7ACFD8B
:10841000FCF7B0FD4FF08043D3F838340293D7E730
:1084200000E100E0DBE5B15165910700012000F0BB
:1084300099BE0120FCF726BD0220FCF723BD18DF02
:1084400070470000F0B51D46154B87B018680F4601
:1084500059681B7A03AC03C42370124B186859681F
:10846000114B009301AC03C403A8164602F07DFD36
:1084700003A90246384602F021FD01A802F075FD6D
:1084800001A90246304602F019FD684602F06DFD72
:1084900069460246284602F011FD07B0F0BD00BF54
:1084A00061BC0700AABB0700312E300001207047D5
:1084B00010B51C460B781E2B0AD000232022052164
:1084C00002F0BEF94FF6FF70A04228BF204610BD53
:1084D0000020F9E7F8B5069F14460D463A460021FC
:1084E00018461E46FBF71EFF6CB10A4B1B68DB07E4
:1084F00000D500BE4FF0FF300AE0284600F0E0F85B
:10850000013504F50074BC4206EB0401F5D32046A6
:10851000F8BD00BFF0ED00E0F8B50A4F0D461E466D
:108520000024069B9C4206EB040101D32046F8BDC3
:108530003A46284600F09AF90028F7D0013504F5AC
:108540000074EEE7A8B0002030B5284C227A8DB038
:108550009AB107AC142200212046FBF7E3FE062562
:108560000B9B8DF81C50009394E80F00FCF712FF52
:108570000620FCF787FC0DB030BD2368002BFAD035
:108580001B4B197819B105201A70FCF77BFCD4E954
:1085900000329A42EFD307AD142200212846FBF7A0
:1085A000C1FE637AF3B106234FF420424FF4E82171
:1085B0004FF423208DF81C3002F072FC68B11022B9
:1085C000002103A8FBF7AEFE4FF423224FF4205303
:1085D00003A8CDE90423FFF732FF0B9B009395E836
:1085E0000F00C3E78DF81C30F7E700BFA8B00020EC
:1085F0007C840020024B0B604FF4007313807047A3
:108600000901010001207047F7B51F491F481F4F9E
:1086100002F09CFC43F204031A681D4B9A422DD1D0
:108620004FF440531B78102B25D943F21002142B22
:10863000156821D943F214031C68144802F095FC14
:108640004FF47A721349B4FBF2F602FB1646B4FB00
:10865000F1F3019601FB13413844B1FBF2F12A46D4
:1086600000910D4902F052FC0C49084803B0BDE8E6
:10867000F04002F06BBC00250024DEE708493846D4
:1086800002F064FCF0E700BF6ABC07007D840020B4
:10869000DBE5B15140420F0077BC07009EBC0700EC
:1086A00092BC070010B50023934200DB10BD0C788C
:1086B0001CB10131C4540133F6E72024FAE700006D
:1086C0002DE9F3410C4605464FF400720021204687
:1086D000FBF728FE6DB95E493E22204602F0EEFB14
:1086E000552384F8FE31AA2384F8FF3102B0BDE897
:1086F000F081B5F5017F2DD8691EB1F5817F24BFCA
:108700006FF4817805EB0801C9B10B02C1EBC151CF
:1087100003F5807004EB412440F6C3251A1FB2F51F
:108720002C6F03F1010206D2AB4214BF91B24FF697
:10873000FF7124F8131090421346EFD1D6E7F823C7
:10874000237004F109022346FF2003F8010F93422E
:10875000FBD1DAE7B5F5027F3CD86FF4017C6544C4
:108760003DB920463B490B22FFF79CFF2823E372CB
:10877000203439492E014FF0000801EB0525702700
:10878000022EB3D80B2229462046FFF78BFF522337
:108790006FF03D026FF04A016374E3746376B31CBB
:1087A00084F80D80A773E1732274A27484F8148096
:1087B00084F81580A775E17522766383E86830B187
:1087C00002F0D3FBE061013620341035D8E74FF4D6
:1087D000AC10F7E7214B9D4288D86FF40277EA1975
:1087E000012A0FD81C4B03EB0213D96801910846EC
:1087F00002F0BBFB01990246204602B0BDE8F04101
:1088000002F05CBB6FF4FD76A9190902B1F5801F77
:10881000BFF46CAF124B236003F1144303F52C1328
:1088200003F6023363600F4BC4F8FC314FF42C6342
:10883000A3614FF40053A5F20B254FF48072A3609F
:10884000094B6561E1602261E36104F12000D4E736
:10885000B2BC0700DDBC070090BD070008010100A5
:108860005546320A306FB10A1F521519F7B5674BDA
:1088700014460A689A420D463ED103F114434A68F1
:1088800003F52C1303F602339A4235D1D1F8FC21BB
:108890005F4B9A4230D18B6823F4FF5323F01E03C1
:1088A0009B049B0CB3F5005F26D10B69B3F5807F69
:1088B00022D1C86810F0FF061ED1CB69554A9342F9
:1088C0000AD0554A93421AD002F1854202F5471266
:1088D00002F6E37293420FD1A0F58053B3F52C2F2B
:1088E00007D201234FF4807205F12001FCF704F94F
:1088F00022E0B0F5805F1FD34FF0FF3021E0012769
:108900006772CB68B3F1102F1DD104223431684651
:1089100002F0D4FA042205F138010DEB020002F056
:10892000CDFA009BB3F5E82F03D1019BB3F5FC2FE3
:1089300001D02772E0E7A772AB69002B37D14FF463
:10894000007003B0F0BDA3F5E822B2F5204F28D2A5
:10895000E27A01F12007DAB9304A934218D32B6941
:10896000B34215D90422B919684602F0A7FA009B50
:10897000D02B14D10422311D0DEB0200394402F03A
:108980009DFA274B019A9A424FF001030DD1E372F1
:10899000E8682A690123394600F53C30A6E7083625
:1089A000DDE7B3F5805FC7D301232372A4E7226814
:1089B000934207D041F263018B4200D80AB14FF0D5
:1089C000FF3323606B6941F263029342B7D803F02F
:1089D000070204EBD303012191401A7B1142C8B274
:1089E00004D16168024301311A736160D4E9003235
:1089F0009A42A4D30120FCF761F8637A002B9ED041
:108A0000A37A002B9BD10123237298E75546320AA3
:108A1000306FB10A4028A5AD3C8263D628BE07005E
:108A20001F521519064B1868082802D104331B6819
:108A300023B9A0F10D0358425841704701207047F7
:108A40003001001042DF704743DF704744DF70475A
:108A500012DF704770B4234A92F8D8308BB3224BA0
:108A60005B68C3F308032BB1014670BC1F480122A9
:108A700000F042BFEFF3108189BB1D4B5968C1F371
:108A8000C01309062BD592F8D830002BFBD118E083
:108A9000D6F82C31D6F850110B4400218C0004F18B
:108AA000804404F51C340131D4F80851D4F8304125
:108AB00008292C442344F1D192F8D810DBB2994212
:108AC000E6D892F8D8300133DBB282F8D8300123EF
:108AD0000360BFF36F8FBFF34F8F70BC7047054EBD
:108AE000EAE700BFC4B2002000ED00E0558A0700AD
:108AF00000E100E000700240082870B5184B194EE4
:108B0000054618D1D3F8C044E20327D4D6F8C020D4
:108B10001548C3F8A027C3F8A447FFF79BFF182008
:108B200045437219735923447351D38814FA83F45B
:108B3000A4B2D48070BD00F5947253F8224018227C
:108B40004243E4B2B158142202FB00330748C3F891
:108B5000001700EB8500C3F80447DEE70024DEE7DA
:108B600000700240C4B200204870024028700240E9
:108B700010B4104B182101FB00314A8A0B8ACC68D3
:108B80009B1A8A8A9BB2934228BF134614224243FF
:108B900002F1804202F51C32C2F80046C2F80436E7
:108BA0002344CB60044B5DF8044B03EB8000FFF7DC
:108BB00051BF00BFC4B200200470024007B543F2A9
:108BC000040300201A68084B9A420AD18DF8070066
:108BD0000DF10700FFF73CFF9DF80700003818BFB4
:108BE000012003B05DF804FBDBE5B15107B5FFF7E9
:108BF000E5FF48B101A8FFF729FF0198003818BF29
:108C0000012003B05DF804FB4FF08043D3F80C045F
:108C100000F00110A0F1011358425841F1E77047EC
:108C2000014B80225A60704700E100E0024B802235
:108C3000C3F88420704700BF00E100E0074BD3F881
:108C40000014D3F800240A43C3F800240022C3F818
:108C500058214FF48002C3F804237047007002408B
:108C600070B58A784E793E4C02F07F03182000FBE5
:108C700003F5D2090C2000FB02500D79204406F0C8
:108C8000070645EA06250581C97801F00301012997
:108C900022D00120334900FA03F49AB903F10C05FC
:108CA000A840C1F80403D1F8140503F594732043D8
:108CB000C1F8140541F82320BFF36F8FBFF34F8F26
:108CC000012012E002339840C1F80403D1F81035B6
:108CD0002343C1F81035EFE7082B07D0224B186863
:108CE00010F0010001D000BE002070BD1D4BDAB9AC
:108CF000B4F8D42012B18022C3F81C250022C3F896
:108D00005021D3F8002312F4001208BFC3F85421F5
:108D1000144B4FF44012C3F80423D3F8142542F443
:108D20008072C3F81425C7E70022C3F82C21B4F8D9
:108D3000C82012B18022C3F81C250A4BD3F80023A7
:108D400012F4001208BFC3F85421084AC3F80423E0
:108D5000D3F8102542F48072C3F81025ACE700BFA9
:108D6000C4B2002000700240F0ED00E000082000D6
:108D7000F7B501F07F00CD090E4618211E4C414386
:108D80000C2707FB051704EB070CE2510022ACF897
:108D90000430ACF8062038B155BB0C44A37AF3B1CB
:108DA000A572FFF7A9FE1AE003BB144BD3F8803479
:108DB000C3F3C0139D4219D01148FFF74BFE94F83E
:108DC000D8302BB194F8D830013BDBB284F8D830DE
:108DD000002300931A463146184600F078FD012022
:108DE00003B0F0BD054B0122DA64F8E7002DF9D09D
:108DF000FFF7BEFEF3E700BFC4B2002000700240E0
:108E00005070024011F07F0307D1084B01225A65D0
:108E1000BFF36F8FBFF34F8F7047082B1EBF034BFD
:108E200041F48071C3F81815F2E700BF00700240EA
:108E300011F0770F10D0094B41F48072C3F8181568
:108E4000C3F80C25CA0904BF01F5947143F8212029
:108E5000BFF36F8FBFF34F8F704700BF00700240AA
:108E600010B500221146930003F1804303F51C3333
:108E70000132082A59609962F5D1064B064C5962B5
:108E8000DC22996420460021FBF74CFA4023A382A0
:108E9000238110BD00700240C4B200202DE9F04FC4
:108EA000AA4BAB4AD3F80003002385B01C4601252A
:108EB0001E4605FA03F1084209D052F8237037B173
:108EC0000C4342F82360BFF36F8FBFF34F8F013322
:108ED000192BEED1E50706D5FFF7C2FF00210122CD
:108EE000084600F0CBFC14F4006F9A4D08D0974B65
:108EF000D3F8A8369BB2A5F8D230012385F8D73035
:108F0000A0021BD5914BD3F81435D90502D5082002
:108F1000FFF7F2FD95F8D7305BB1B5F8D22000230A
:108F2000012185F8D73092B200911846882100F0CF
:108F3000CEFC01220321002000F090FC620217D534
:108F4000824FD7F8006406F44073C7F80034F30585
:108F500007D501220421002000F080FC0123C7F87E
:108F60002C35B70504D501220521002000F076FC40
:108F7000794B23404BB195F8D830002B40F0C2809C
:108F8000764B1B68DE0700D500BE20022BD56F4B49
:108F9000D3F88014C9B28DF80810D3F88424D2B263
:108FA0008DF80920D3F888048DF80A00D3F88C04D2
:108FB0008DF80B00D3F890048DF80C00D3F89404CE
:108FC0008DF80D00D3F898048DF80E00D3F89C347A
